:020000040800F2
:100000000080002051060008CD050008D505000835
:10001000DD050008E5050008ED050008000000000A
:10002000000000000000000000000000F5050008CE
:100030000306000800000000110600081F06000863
:10004000A1060008A1060008A1060008A1060008F4
:10005000A1060008A1060008A1060008A1060008E4
:10006000A1060008A1060008A1060008A1060008D4
:10007000A1060008A1060008A1060008A1060008C4
:10008000A106000800000000A1060008A106000863
:10009000A1060008A1060008A1060008A1060008A4
:1000A000A1060008A1060008A1060008A106000894
:1000B000A1060008A1060008A1060008A106000884
:1000C000A1060008A1060008A1060008A106000874
:1000D000A1060008A1060008A1060008A106000864
:1000E000A1060008A1060008A1060008A106000854
:1000F000A1060008A1060008A106000800000000F3
:1001000000000000A106000800000000A106000891
:10011000A106000800000000A1060008A1060008D2
:10012000A1060008A1060008A1060008A106000813
:10013000A10600080000000000000000A106000861
:10014000A1060008A1060008000000000000000051
:10015000000000000000000000000000000000009F
:10016000000000000000000000000000A1060008E0
:10017000A1060008000000000000000000000000D0
:1001800000000000A10600080000000000000000C0
:10019000000000000000000000000000000000005F
:1001A0000000000000000000A1060008A1060008F1
:1001B000A1060008A1060008A10600080000000032
:1001C00000000000A1060008000000000000000080
:0801D000A1060008A1060008C9
:1001D80010B5054C237833B9044B13B10448AFF379
:1001E80000800123237010BD0C00002000000000D7
:1001F8008418000808B5034B1BB103490348AFF343
:10020800008008BD000000001000002084180008CD
:1002180080B586B000AF0346FB71C7F800C0304A0E
:1002280007F10C0307CA03C31A80FB7918333B4450
:1002380013F80C3CFB75FB7D03F00103DBB21A4697
:100248000221284800F02CFDFB7D5B10DBB203F097
:100258000103DBB21A464FF480714FF0904000F072
:100268001FFDFB7D9B10DBB203F00103DBB21A46D6
:1002780010214FF0904000F013FDFB7DDB10DBB246
:1002880003F00103DBB21A4602214FF0904000F060
:1002980007FDFB7D1B11DBB203F00103DBB21A463D
:1002A80001214FF0904000F0FBFCFB7D5B11DBB2BD
:1002B80003F00103DBB21A4601210A4800F0F0FC02
:1002C800FB7D9B11DBB203F00103DBB21A4601216F
:1002D800054800F0E5FC00BF1837BD4680BD00BFEB
:1002E8009C180008000800480004004880B584B045
:1002F80000AF07F118033B6000F0CFF900F072F887
:1003080000F0B0F801222021354800F0C9FC002295
:100318004FF48061324800F0C3FC002210213048BD
:1003280000F0BEFC0523FB600DE0FB68DBB23A463B
:1003380094461846FFF76CFF4FF47A7000F01EFAE7
:10034800FB68013BFB60FB68002BEEDA00222021F2
:10035800234800F0A5FC01224FF48061204800F0FA
:100368009FFC002210211E4800F09AFC0223BB606B
:100378000DE0BB68DBB23A4694461846FFF748FFE3
:100388004FF47A7000F0FAF9BB68013BBB60BB68B8
:10039800002BEEDA00222021114800F081FC002217
:1003A8004FF480610E4800F07BFC012210210C48BC
:1003B80000F076FC05237B600DE07B68DBB23A46F3
:1003C80094461846FFF724FF4FF47A7000F0D6F9E8
:1003D8007B68013B7B607B68002BEEDA92E700BF0D
:1003E8000004004880B594B000AF07F11803382224
:1003F8000021184601F016FA3B1D00221A605A60C7
:100408009A60DA601A614FF4007000F061FC022310
:10041800BB614FF480737B624023BB6200237B6324
:1004280007F11803184600F007FD0346002B01D01A
:1004380000F09EF80F237B600123BB600023FB6064
:1004480000233B6100237B613B1D0021184601F01E
:1004580005F80346002B01D000F08AF800BF50379A
:10046800BD4680BD80B588B000AF07F10C030022FF
:100478001A605A609A60DA601A613A4BDB6C394A42
:1004880043F00403D364374BDB6C03F00403BB6015
:10049800BB68344BDB6C334A43F00103D364314B04
:1004A800DB6C03F001037B607B682E4BDB6C2D4A11
:1004B80043F00203D3642B4BDB6C03F002033B6075
:1004C8003B6800220321284800F0EAFB002240F2A2
:1004D80033114FF0904000F0E3FB002240F231412D
:1004E800224800F0DDFB4FF40053FB6000233B6122
:1004F80000237B6107F10C0319461B4800F044FAFE
:100508000323FB6001233B6100237B610023BB6164
:1005180007F10C031946144800F036FA40F2331379
:10052800FB6001233B6100237B610023BB6107F172
:100538000C0319464FF0904000F026FA40F2314380
:10054800FB6001233B6100237B610023BB6107F152
:100558000C031946054800F017FA00BF2037BD46BE
:1005680080BD00BF00100240000800480004004899
:1005780080B400AF72B600BF00BFFDE780B582B09F
:1005880000AF0F4B1B6E0E4A43F0010313660C4B72
:100598001B6E03F001037B607B68094B9B6D084A67
:1005A80043F080539365064B9B6D03F080533B608B
:1005B8003B6800F031FC00BF0837BD4680BD00BF76
:1005C8000010024080B400AF00BFFDE780B400AF68
:1005D80000BFFDE780B400AF00BFFDE780B400AF07
:1005E80000BFFDE780B400AF00BFFDE780B400AFF7
:1005F80000BFBD465DF8047B704780B400AF00BF04
:10060800BD465DF8047B704780B400AF00BFBD46AF
:100618005DF8047B704780B500AF00F091F800BF2B
:1006280080BD000080B400AF064BD3F88830054A7F
:1006380043F47003C2F8883000BFBD465DF8047B00
:10064800704700BF00ED00E00D488546FFF7EAFF60
:100658000C480D490D4A002302E0D458C450043315
:10066800C4188C42F9D30A4A0A4C002301E01360EB
:100678000432A242FBD301F0DDF8FFF737FEFEE7B4
:1006880000800020000000200C000020C018000896
:100698000C0000202C000020FEE780B582B000AFDF
:1006A8000023FB71032000F03DF90F2000F00EF845
:1006B8000346002B02D00123FB7101E0FFF75EFF28
:1006C800FB7918460837BD4680BD000080B584B068
:1006D80000AF78600023FB73164B1B68002B22D0F9
:1006E800154B1A68134B1B684FF47A71B1FBF3F37F
:1006F800B2FBF3F3184600F03AF90346002B0FD18A
:100708007B680F2B09D8002279684FF0FF3000F082
:1007180014F90A4A7B68136007E00123FB7304E0BD
:100728000123FB7301E00123FB73FB7B18461037A1
:10073800BD4680BD08000020000000200400002005
:1007480080B400AF054B1A68054B1B681344034A75
:10075800136000BFBD465DF8047B70472800002089
:100768000800002080B400AF034B1B681846BD4644
:100778005DF8047B704700BF2800002080B584B076
:1007880000AF7860FFF7EEFFB8607B68FB60FB683E
:10079800B3F1FF3F04D0094B1B68FA681344FB60B0
:1007A80000BFFFF7DFFF0246BB68D31AFA689A4218
:1007B800F7D800BF00BF1037BD4680BD0800002035
:1007C80080B485B000AF78607B6803F00703FB60F6
:1007D8000C4BDB68BB60BA684FF6FF031340BB6085
:1007E800FB681A02BB68134343F0BF6343F400334A
:1007F800BB60044ABB68D36000BF1437BD465DF8D0
:10080800047B704700ED00E080B400AF044BDB6868
:100818001B0A03F007031846BD465DF8047B7047C2
:1008280000ED00E080B483B000AF03463960FB718F
:1008380097F90730002B0ADB3B68DAB20C4997F9C5
:1008480007301201D2B20B4483F800230AE03B6858
:10085800DAB20849FB7903F00F03043B1201D2B264
:100868000B441A7600BF0C37BD465DF8047B704711
:1008780000E100E000ED00E080B489B000AFF8606E
:10088800B9607A60FB6803F00703FB61FB69C3F199
:100898000703042B28BF0423BB61FB690433062B21
:1008A80002D9FB69033B00E000237B614FF0FF3274
:1008B800BB6902FA03F3DA43BB681A407B699A40C2
:1008C8004FF0FF317B6901FA03F3D9437B680B4092
:1008D800134318462437BD465DF8047B7047000073
:1008E80080B582B000AF78607B68013BB3F1807F50
:1008F80001D301230FE00A4A7B68013B53600F21B3
:100908004FF0FF30FFF78EFF054B00229A60044B33
:1009180007221A60002318460837BD4680BD00BF6D
:1009280010E000E080B582B000AF78607868FFF72B
:1009380047FF00BF0837BD4680BD80B586B000AF11
:100948000346B9607A60FB73FFF75EFF78617A68E7
:10095800B9687869FFF790FF024697F90F3011469A
:100968001846FFF75FFF00BF1837BD4680BD80B54A
:1009780082B000AF78607868FFF7B2FF0346184688
:100988000837BD4680BD000080B487B000AF7860EE
:10099800396000237B6164E13B681A6801217B6947
:1009A80001FA03F31340FB60FB68002B00F056814B
:1009B8003B685B6803F00303012B05D03B685B6869
:1009C80003F00303022B30D17B689B683B617B6992
:1009D8005B00032202FA03F3DB433A6913403B61ED
:1009E8003B68DA687B695B0002FA03F33A691343F0
:1009F8003B617B683A699A607B685B683B6101226E
:100A08007B6902FA03F3DB433A6913403B613B68B5
:100A18005B681B0903F001027B6902FA03F33A6978
:100A280013433B617B683A695A603B685B6803F033
:100A38000303032B09D13B685B6803F00303032B13
:100A48001BD13B689B68012B17D07B68DB683B6137
:100A58007B695B00032202FA03F3DB433A69134024
:100A68003B613B689A687B695B0002FA03F33A6969
:100A780013433B617B683A69DA603B685B6803F063
:100A88000303022B23D17B69DA087B68083253F809
:100A980022303B617B6903F007039B000F2202FAB7
:100AA80003F3DB433A6913403B613B681A697B698E
:100AB80003F007039B0002FA03F33A6913433B610F
:100AC8007B69DA087B680832396943F822107B6849
:100AD8001B683B617B695B00032202FA03F3DB437B
:100AE8003A6913403B613B685B6803F003027B692A
:100AF8005B0002FA03F33A6913433B617B683A6986
:100B08001A603B685B6803F44033002B00F0A68052
:100B18005B4B1B6E5A4A43F001031366584B1B6E1E
:100B280003F00103BB60BB68564A7B699B0802332C
:100B380052F823303B617B6903F003039B000F22CB
:100B480002FA03F3DB433A6913403B617B68B3F174
:100B5800904F1FD07B684C4A934219D07B684B4A10
:100B6800934213D07B684A4A93420DD07B68494A26
:100B7800934207D07B68484A934201D105230AE093
:100B8800062308E0042306E0032304E0022302E02E
:100B9800012300E000237A6902F0030292009340E7
:100BA8003A6913433B6137497B699B0802333A69C9
:100BB80041F82320394B9B683B61FB68DB433A696A
:100BC80013403B613B685B6803F48013002B03D040
:100BD8003A69FB6813433B61304A3B6993602F4B8A
:100BE800DB683B61FB68DB433A6913403B613B6868
:100BF8005B6803F40013002B03D03A69FB681343C6
:100C08003B61264A3B69D360244B5B683B61FB68C8
:100C1800DB433A6913403B613B685B6803F400338C
:100C2800002B03D03A69FB6813433B611B4A3B69BD
:100C380053601A4B1B683B61FB68DB433A691340FE
:100C48003B613B685B6803F48033002B03D03A694F
:100C5800FB6813433B61114A3B6913607B690133AD
:100C68007B613B681A687B6922FA03F3002B7FF4E7
:100C780093AE00BF00BF1C37BD465DF8047B7047CC
:100C8800001002400000014000040048000800482D
:100C9800000C0048001000480014004800040140FF
:100CA80080B483B000AF78600B467B8013467B70BE
:100CB8007B78002B03D07A887B689A6102E07A8877
:100CC8007B689A6200BF0C37BD465DF8047B7047AD
:100CD80080B485B000AF78607B68002B41D14B4B66
:100CE8001B6803F4C063B3F5806F31D1474BD3F869
:100CF8008030464A23F48073C2F88030434B1B6827
:100D080023F4C063414A43F400731360404B1B68EB
:100D1800322202FB03F33F4AA2FB03239B0C01335D
:100D2800FB6002E0FB68013BFB60384B5B6903F446
:100D38008063B3F5806F02D1FB68002BF2D1334B8F
:100D48005B6903F48063B3F5806F58D1032357E0E0
:100D58002E4BD3F880302D4A23F48073C2F88030AC
:100D68004DE07B68B3F5007F41D1284B1B6803F445
:100D7800C063B3F5806F31D1244BD3F88030234A58
:100D880043F48073C2F88030204B1B6823F4C0639F
:100D98001E4A43F4007313601D4B1B68322202FB8A
:100DA80003F31C4AA2FB03239B0C0133FB6002E004
:100DB800FB68013BFB60154B5B6903F48063B3F58B
:100DC800806F02D1FB68002BF2D1104B5B6903F4F2
:100DD8008063B3F5806F12D1032311E00B4BD3F876
:100DE80080300A4A43F48073C2F8803007E0074B2A
:100DF8001B6823F4C063054A43F48063136000232F
:100E080018461437BD465DF8047B704700700040F3
:100E18000000002083DE1B4380B400AF054B9B68B5
:100E2800044A43F48043936000BFBD465DF8047BE9
:100E3800704700BF0070004080B588B000AF786090
:100E48007B68002B01D10123FEE27B681B6803F05D
:100E58000103002B75D0974B9B6803F00C03BB6113
:100E6800944BDB6803F003037B61BB690C2B02D155
:100E78007B69032B02D0BB69082B0BD18D4B1B68F8
:100E880003F40033002B5BD07B685B68002B57D1E1
:100E98000123D9E27B685B68B3F5803F06D1854BB7
:100EA8001B68844A43F4803313601DE07B685B68E9
:100EB800B3F5A02F0CD17F4B1B687E4A43F48023E7
:100EC80013607C4B1B687B4A43F4803313600BE050
:100ED800784B1B68774A23F480331360754B1B6883
:100EE800744A23F4802313607B685B68002B13D05B
:100EF800FFF738FC386108E0FFF734FC02463B692D
:100F0800D31A642B01D903239EE26A4B1B6803F4AE
:100F18000033002BF0D014E0FFF724FC386108E020
:100F2800FFF720FC02463B69D31A642B01D903233F
:100F38008AE2604B1B6803F40033002BF0D100E019
:100F480000BF7B681B6803F00203002B75D0594B68
:100F58009B6803F00C03BB61564BDB6803F003038B
:100F68007B61BB690C2B02D17B69022B02D0BB6968
:100F7800042B1FD14F4B1B6803F48063002B05D053
:100F88007B68DB68002B01D101235DE2494B5B687C
:100F980023F0FE427B681B691B06464913434B60DE
:100FA800454B1B681846FFF791FB0346002B43D0BF
:100FB800012349E27B68DB68002B23D03D4B1B688B
:100FC8003C4A43F480731360FFF7CCFB386108E0B8
:100FD800FFF7C8FB02463B69D31A022B01D903234A
:100FE80032E2344B1B6803F48063002BF0D0314BA2
:100FF8005B6823F0FE427B681B691B062D4913437F
:101008004B601AE02B4B1B682A4A23F48073136049
:10101800FFF7A8FB386108E0FFF7A4FB02463B692D
:10102800D31A022B01D903230EE2224B1B6803F4C7
:101038008063002BF0D100E000BF7B681B6803F0E1
:101048000803002B41D07B685B69002B1CD0194B2F
:10105800D3F89430174A43F00103C2F89430FFF7ED
:1010680081FB386108E0FFF77DFB02463B69D31A34
:10107800022B01D90323E7E10E4BD3F8943003F098
:101088000203002BEFD020E00A4BD3F89430094A32
:1010980023F00103C2F89430FFF764FB38610DE0D8
:1010A800FFF760FB02463B69D31A022B06D90323DC
:1010B800CAE100BF00100240040000208C4BD3F8A6
:1010C800943003F00203002BEAD17B681B6803F01D
:1010D8000403002B00F0A6800023FB77844B9B6D54
:1010E80003F08053002B01D1012300E00023002BE3
:1010F8000DD07F4B9B6D7E4A43F0805393657C4BAC
:101108009B6D03F08053FB60FB680123FB77794BF1
:101118001B6803F48073002B18D1764B1B68754A43
:1011280043F480731360FFF71DFB386108E0FFF795
:1011380019FB02463B69D31A022B01D9032383E129
:101148006C4B1B6803F48073002BF0D07B689B68A2
:10115800012B08D1664BD3F89030654A43F0010360
:10116800C2F8903024E07B689B68052B10D1604B57
:10117800D3F890305E4A43F00403C2F890305C4BD9
:10118800D3F890305A4A43F00103C2F890300FE088
:10119800574BD3F89030564A23F00103C2F89030E9
:1011A800534BD3F89030524A23F00403C2F89030DE
:1011B8007B689B68002B16D0FFF7D4FA38610AE0E9
:1011C800FFF7D0FA02463B69D31A41F288329342BC
:1011D80001D9032338E1464BD3F8903003F00203DA
:1011E800002BEDD015E0FFF7BDFA38610AE0FFF7F4
:1011F800B9FA02463B69D31A41F28832934201D9BF
:10120800032321E13A4BD3F8903003F00203002B7B
:10121800EDD1FB7F012B05D1354B9B6D344A23F073
:10122800805393657B681B6803F02003002B3CD038
:101238007B689B69002B1CD02D4BD3F898302C4A27
:1012480043F00103C2F89830FFF78CFA386108E0E0
:10125800FFF788FA02463B69D31A022B01D9032308
:10126800F2E0234BD3F8983003F00203002BEFD0C1
:101278001BE01F4BD3F898301D4A23F00103C2F836
:101288009830FFF76FFA386108E0FFF76BFA02460B
:101298003B69D31A022B01D90323D5E0144BD3F8A9
:1012A800983003F00203002BEFD17B68DB69002B39
:1012B80000F0C9800E4B9B6803F00C030C2B00F068
:1012C80083807B68DB69022B5ED1094B1B68084A67
:1012D80023F080731360FFF745FA38610CE0FFF7DD
:1012E80041FA02463B69D31A022B05D90323ABE026
:1012F8000010024000700040554B1B6803F000735B
:10130800002BECD1524BDA68524B13407A68116AC1
:101318007A68526A013A120111437A68926A120293
:1013280011437A68126B5208013A520511437A68E0
:10133800526B5208013A520611437A68D26AD206B1
:101348000A4343491343CB60414B1B68404A43F06F
:10135800807313603E4BDB683D4A43F08073D36073
:10136800FFF700FA386108E0FFF7FCF902463B692D
:10137800D31A022B01D9032366E0354B1B6803F00F
:101388000073002BF0D05EE0314B1B68304A23F02D
:1013980080731360FFF7E6F9386108E0FFF7E2F9B8
:1013A80002463B69D31A022B01D903234CE0284B90
:1013B8001B6803F00073002BF0D1254BDA68244931
:1013C800254B1340CB603EE07B68DB69012B01D1E4
:1013D800012339E01E4BDB687B617B6903F0030264
:1013E8007B681B6A9A422CD17B6903F0F0027B6808
:1013F8005B6A013B1B019A4223D17B6903F4FE42DD
:101408007B689B6A1B029A421BD17B6903F0784276
:101418007B68DB6ADB069A4213D17B6903F4C0025E
:101428007B681B6B5B08013B5B059A4209D17B69B2
:1014380003F0C0627B685B6B5B08013B5B069A420A
:1014480001D0012300E0002318462037BD4680BDA7
:10145800001002400C809F01FCFFEEFE80B586B0B4
:1014680000AF7860396000237B617B68002B01D175
:1014780001231EE1914B1B6803F00F033A689A425F
:1014880010D98E4B1B6823F00F028C493B6813431D
:101498000B608A4B1B6803F00F033A689A4201D02D
:1014A800012306E17B681B6803F00103002B73D05E
:1014B8007B685B68032B29D1814B1B6803F00073A1
:1014C800002B01D10123F4E000F066F938613B6993
:1014D8007C4A93423FD97A4B9B6803F0F003002B78
:1014E80009D07B681B6803F00203002B33D07B68AC
:1014F8009B68002B2FD1724B9B6823F0F003704A36
:1015080043F08003936080237B6124E07B685B6801
:10151800022B07D16A4B1B6803F40033002B09D157
:101528000123C6E0664B1B6803F48063002B01D1DE
:101538000123BEE000F0CEF838613B69614A93426E
:1015480009D95F4B9B6823F0F0035D4A43F08003A1
:10155800936080237B615A4B9B6823F003027B686E
:101568005B68574913438B60FFF7FCF8F8600AE0A3
:10157800FFF7F8F80246FB68D31A41F28832934223
:1015880001D9032395E04E4B9B6803F00C027B685E
:101598005B689B009A42EBD17B681B6803F00203EF
:1015A800002B23D07B681B6803F00403002B05D0B5
:1015B800434B9B68424A43F4E06393607B681B6833
:1015C80003F00803002B07D03D4B9B6823F47C53A2
:1015D8003B4A43F4E0639360394B9B6823F0F00285
:1015E8007B689B68364913438B6008E07B69802BD6
:1015F80005D1334B9B68324A23F0F00393602F4B9D
:101608001B6803F00F033A689A421DD22B4B1B68E4
:1016180023F00F0229493B6813430B60FFF7A2F838
:10162800F8600AE0FFF79EF80246FB68D31A41F219
:101638008832934201D903233BE0204B1B6803F017
:101648000F033A689A42EDD17B681B6803F00403E4
:10165800002B08D01A4B9B6823F4E0627B68DB6898
:10166800174913438B607B681B6803F00803002B42
:1016780009D0134B9B6823F460527B681B69DB001D
:101688000F4913438B6000F025F802460C4B9B680A
:101698001B0903F00F030C49CB5C03F01F0322FA6C
:1016A80003F30A4A13600A4B1B681846FFF70EF843
:1016B800034618461837BD4680BD00BF00200240CB
:1016C8000010024000B4C404A8180008000000205C
:1016D8000400002080B487B000AF2C4B9B6803F057
:1016E8000C03042B02D12A4B3B6147E0274B9B6834
:1016F80003F00C03082B02D1264B3B613EE0234B41
:101708009B6803F00C030C2B36D1204BDB6803F0ED
:101718000303FB601D4BDB681B0903F00F03013358
:10172800BB60FB68032B0CD11A4ABB68B2FBF3F30E
:10173800164AD268120A02F07F0202FB03F37B61A9
:101748000CE0134ABB68B2FBF3F3104AD268120AE2
:1017580002F07F0202FB03F37B6100BF0B4BDB68E7
:101768005B0E03F0030301335B007B607A697B68DF
:10177800B2FBF3F33B6101E000233B613B69184690
:101788001C37BD465DF8047B704700BF001002405F
:101798000024F40000127A0080B487B000AF1E4B1A
:1017A800DB6803F003033B611B4BDB681B0903F099
:1017B8000F030133FB603B69032B0CD1174AFB680D
:1017C800B2FBF3F3144AD268120A02F07F0202FB5A
:1017D80003F37B610CE0124AFB68B2FBF3F30E4A99
:1017E800D268120A02F07F0202FB03F37B6100BF9A
:1017F800094BDB685B0E03F0030301335B00BB603E
:101808007A69BB68B2FBF3F37B607B6818461C37C8
:10181800BD465DF8047B70470010024000127A0054
:101828000024F40002440346934200D1704703F8B1
:10183800011BF9E770B50D4B0D4D5B1B9C10002685
:10184800A64209D100F01AF80A4D0B4B5B1B9C10FD
:101858000026A64205D170BD55F8043B98470136CD
:10186800EEE755F8043B98470136F2E7B818000848
:10187800B8180008B8180008BC180008F8B500BF68
:10188800F8BC08BC9E467047F8B500BFF8BC08BC59
:041898009E467047B1
:10189C003F065B4F666D7D077F6F00000000000008
:0C18AC0000000000010203040607080908
:0418B800FD01000826
:0418BC00D901000846
:0C18C0000024F4001000000001000000F3
:040000050800065198
:00000001FF
